:060000000A128A11E22F32
:10000A0083120313B000300803190C280D28212885
:10001A00AB1F1028112821282809B2002909B3008A
:10002A002A09B4002B09B500B20A0319B30A031945
:10003A00B40A0319B50A29282B08B5002A08B400FE
:10004A002908B3002808B2002B082A042904280426
:10005A00031D302831283A280030AB000030AA00AE
:10006A000030A9000030A800BE289630B1004A2806
:10007A000130FF007F08B10701300310B50CB40C42
:10008A00B30CB20CFF3E031D4228FE303505031D9A
:10009A004F2850283D286C280130FF007F08B107FF
:1000AA000130B207003003180130B30700300318DB
:1000BA000130B407003003180130B50701300310CE
:1000CA00B50CB40CB30CB20CFF3E031D6428FF3010
:1000DA003505031D7128722851287E280130B10286
:1000EA000130AC000310B20DB30DB40DB50DAC0B5D
:1000FA007728B41B81288228882802303102031805
:10010A0087288828732831188B288C289428FF3050
:10011A00B205FF30B3057F30B405FF30B5050310D3
:10012A00B10C3108AC00AD01AE01AF0118300310BB
:10013A00AC0DAD0DAE0DAF0DFF3E031D9C282C0876
:10014A00B2042D08B3042E08B4042F08B5043008ED
:10015A000319B028B128B628AB1FB428B528B62889
:10016A00B5173508AB003408AA003308A9003208CD
:10017A00A800080035082706031DC52834082606E6
:10018A00031DC828C928142935082906031DCF28A4
:10019A0034082806031DD228D328142935082B062B
:1001AA00031DD92834082A06031DDC28DD28142952
:1001BA0035082306031DE32834082206031DE62812
:1001CA00E728142935082506031DED2834082406D6
:1001DA00031DF028F128142935082D06031DF728D8
:1001EA0034082C06031DFA28FB28142933082F0685
:1001FA00031D012932082E06031D04290529142985
:10020A0033083106031D0B2932083006031D0E2957
:10021A000F291429C830CA000030CB00AC2C33088F
:10022A002706031D1A2932082606031D1D291E2921
:10023A00692933082906031D242932082806031DC3
:10024A0027292829692935082B06031D2E29340850
:10025A002A06031D31293229692935082306031D77
:10026A00382934082206031D3B293C296929350807
:10027A002506031D422934082406031D452946295B
:10028A00692935082D06031D4C2934082C06031D3F
:10029A004F295029692935082F06031D5629340884
:1002AA002E06031D59295A29692935083106031DC5
:1002BA00602934083006031D632964296929383006
:1002CA00CA00FF30CB00AC2C33082D06031D6F2962
:1002DA0032082C06031D722973298C2933082F062C
:1002EA00031D792932082E06031D7C297D298C29B4
:1002FA0033083106031D832932083006031D862977
:10030A0087298C292C30CA000130CB00AC2C330849
:10031A002706031D922932082606031D95299629C8
:10032A00AF2933082906031D9C2932082806031D14
:10033A009F29A029AF2933082B06031DA6293208B5
:10034A002A06031DA929AA29AF29D430CA00FE30DA
:10035A00CB00AC2C35082706031DB5293408260620
:10036A00031DB829B929042A35082906031DBF29FE
:10037A0034082806031DC229C329042A35082B0676
:10038A00031DC92934082A06031DCC29CD29042AAC
:10039A0035082306031DD32934082206031DD6294E
:1003AA00D729042A33082506031DDD293208240625
:1003BA00031DE029E129042A33082D06031DE72934
:1003CA0032082C06031DEA29EB29042A33082F06D2
:1003DA00031DF12932082E06031DF429F529042AE2
:1003EA0033083106031DFB2932083006031DFE2996
:1003FA00FF29042A9030CA000130CB00AC2C330804
:10040A002706031D0A2A32082606031D0D2A0E2A6C
:10041A00592A33082906031D142A32082806031DFF
:10042A00172A182A592A33082B06031D1E2A3208AE
:10043A002A06031D212A222A592A33082306031DC4
:10044A00282A32082206031D2B2A2C2A592A350863
:10045A002506031D322A34082406031D352A362AA6
:10046A00592A35082D06031D3C2A34082C06031D7B
:10047A003F2A402A592A35082F06031D462A3408DE
:10048A002E06031D492A4A2A592A35083106031D10
:10049A00502A34083006031D532A542A592A703028
:1004AA00CA00FE30CB00AC2C35082706031D5F2A94
:1004BA0034082606031D622A632AAE2A350829064D
:1004CA00031D692A34082806031D6C2A6D2AAE2AE0
:1004DA0035082B06031D732A34082A06031D762ABB
:1004EA00772AAE2A33082306031D7D2A32082206FC
:1004FA00031D802A812AAE2A33082506031D872A6E
:10050A0032082406031D8A2A8B2AAE2A33082D06AE
:10051A00031D912A32082C06031D942A952AAE2A15
:10052A0033082F06031D9B2A32082E06031D9E2A16
:10053A009F2AAE2A33083106031DA52A320830063F
:10054A00031DA82AA92AAE2AF430CA000130CB001A
:10055A00AC2C33082706031DB42A32082606031DCD
:10056A00B72AB82A032B33082906031DBE2A3208E4
:10057A002806031DC12AC22A032B33082B06031D92
:10058A00C82A32082A06031DCB2ACC2A032B330891
:10059A002306031DD22A32082206031DD52AD62A8B
:1005AA00032B33082506031DDC2A32082406031D03
:1005BA00DF2AE02A032B35082D06031DE62A340814
:1005CA002C06031DE92AEA2A032B35082F06031DE8
:1005DA00F02A34082E06031DF32AF42A032B3508C1
:1005EA003106031DFA2A34083006031DFD2AFE2AA5
:1005FA00032B0C30CA00FE30CB00AC2C3508270682
:10060A00031D092B34082606031D0C2B0D2B582B12
:10061A0035082906031D132B34082806031D162B3B
:10062A00172B582B35082B06031D1D2B34082A06B9
:10063A00031D202B212B582B33082306031D272BA0
:10064A0032082206031D2A2B2B2B582B330825068A
:10065A00031D312B32082406031D342B352B582B4E
:10066A0033082D06031D3B2B32082C06031D3E2B97
:10067A003F2B582B33082F06031D452B32082E0615
:10068A00031D482B492B582B35083106031D4F2BC8
:10069A0034083006031D522B532B582B5830CA00EE
:1006AA000230CB00AC2C35082706031D5E2B34081C
:1006BA002606031D612B622BAD2B33082906031D69
:1006CA00682B32082806031D6B2B6C2BAD2B3308C5
:1006DA002B06031D722B32082A06031D752B762B57
:1006EA00AD2B33082306031D7C2B32082206031D7B
:1006FA007F2B802BAD2B33082506031D862B320852
:10070A002406031D892B8A2BAD2B35082D06031DC4
:10071A00902B34082C06031D932B942BAD2B3508F4
:10072A002F06031D9A2B34082E06031D9D2B9E2B84
:10073A00AD2B35083106031DA42B34083006031DE2
:10074A00A72BA82BAD2BA830CA00FD30CB00AC2CB0
:10075A0035082706031DB32B34082606031DB62BBE
:10076A00B72B022C35082906031DBD2B3408280691
:10077A00031DC02BC12B022C35082B06031DC72BCA
:10078A0034082A06031DCA2BCB2B022C3308230656
:10079A00031DD12B32082206031DD42BD52B022C84
:1007AA0033082506031DDB2B32082406031DDE2B26
:1007BA00DF2B022C33082D06031DE52B32082C06ED
:1007CA00031DE82BE92B022C35082F06031DEF2BFE
:1007DA0034082E06031DF22BF32B022C35083106A2
:1007EA00031DF92B34083006031DFC2BFD2B022CAC
:1007FA00BC30CA000230CB00AC2C35082706031DDA
:10080A00082C34082606031D0B2C0C2C572C3508F3
:10081A002906031D122C34082806031D152C162C34
:10082A00572C33082B06031D1C2C32082A06031DDD
:10083A001F2C202C572C33082306031D262C320884
:10084A002206031D292C2A2C572C33082506031DA2
:10085A00302C32082406031D332C342C572C35082F
:10086A002D06031D3A2C34082C06031D3D2C3E2C64
:10087A00572C35082F06031D442C34082E06031D59
:10088A00472C482C572C35083106031D4E2C3408AA
:10089A003006031D512C522C572C4430CA00FD300F
:1008AA00CB00AC2C35082706031D5D2C3408260620
:1008BA00031D602C612CAC2C35082906031D672CFE
:1008CA0034082806031D6A2C6B2CAC2C35082B0621
:1008DA00031D712C34082A06031D742C752CAC2CAC
:1008EA0035082306031D7B2C34082206031D7E2CA3
:1008FA007F2CAC2C35082506031D852C34082406CC
:10090A00031D882C892CAC2C35082D06031D8F2C31
:10091A0034082C06031D922C932CAC2C35082F0678
:10092A00031D992C34082E06031D9C2C9D2CAC2CDF
:10093A0035083106031DA32C34083006031DA62CE6
:10094A00A72CAC2CA030CA000F30CB00AC2C323014
:10095A004A064B04031DB22CB32CCD2C443083160B
:10096A000313BF004830BE000030BD000030BC0099
:10097A004430C3004830C2000030C1000030C0001B
:10098A000A168A15BD270A128A110A168A11E12B3C
:10099A00CE304A06031DD52C4B0A031DD52CD62C66
:1009AA00EE2C443083160313BF004830BE000030DB
:1009BA00BD000030BC004430C3004830C2000030E3
:1009CA00C1000030C0000A168A112A200A128A11B0
:1009DA00CA2C64304A064B040319F42CF52C292D31
:1009EA00C8304A064B040319FB2CFC2C292D2C3049
:1009FA004A06031D052D4B030319042D052D292D28
:100A0A0090304A06031D0E2D4B0303190D2D0E2D92
:100A1A00292DF4304A06031D172D4B030319162DF1
:100A2A00172D292D58304A06023003194B0603198F
:100A3A001F2D202D292DBC304A06023003194B06E2
:100A4A00031D282D292D4F2D443083160313BF0073
:100A5A007A30BE000030BD000030BC004430C30014
:100A6A007A30C2000030C1000030C0000A168A1570
:100A7A00BD270A128A11023083160313CA004530B1
:100A8A00C900A930C800C80B482DC90B482DCA0B8C
:100A9A00482DCA2C9C304A06031D582D4B0A0319AF
:100AAA00572D582D8E2D38304A06031D612D4B0ABD
:100ABA000319602D612D8E2DD4304A06FE3003199C
:100ACA004B060319692D6A2D8E2D70304A06FE30A9
:100ADA0003194B060319722D732D8E2D0C304A06FD
:100AEA00FE3003194B0603197B2D7C2D8E2DA83061
:100AFA004A06FD3003194B060319842D852D8E2DC8
:100B0A0044304A06FD3003194B06031D8D2D8E2DE8
:100B1A00A62D443083160313BF007A30BE0000307E
:100B2A00BD000030BC004430C3007A30C20000303F
:100B3A00C1000030C0000A168A112A200A128A113E
:100B4A00402D4B08C9004A08C8004A084607C60093
:100B5A004B0803184B0A4707C70042084A02C40059
:100B6A004308031C430A4B02C5004B08C3004A084A
:100B7A00C200480883120313A80083160317490802
:100B8A0083120313A9000030A91BFF30AA00AB008F
:100B9A0001300A128A1105200A128A1183120313DC
:100BAA002B08D7002A08D6002908D5002808D4001F
:100BBA004230D300C830D2000030D1000030D0001B
:100BCA000A128A15BB240A128A11831203135308C4
:100BDA0083160313A7008312031352088316031301
:100BEA00A60083120313510883160313A500831268
:100BFA000313500883160313A40083160317460829
:100C0A0083120313A80083160317470883120313DA
:100C1A00A9000030A91BFF30AA00AB0001300A125C
:100C2A008A1105200A128A11831203132B08D7008E
:100C3A002A08D6002908D5002808D4003A30D3005B
:100C4A005130D200B730D1001730D0000A128A15BD
:100C5A00BB240A128A11831203135308831603133F
:100C6A00A30083120313520883160313A2008312EC
:100C7A000313510883160313A100831203135008A8
:100C8A0083160313A0000A128A15C5210A128A11B3
:100C9A00831603132308831603179300831603137B
:100CAA00220883160317920083160313210883165A
:100CBA000317910083160313200883160317900065
:100CCA00130883160313A700831603171208831643
:100CDA000313A60083160317110883160313A5002E
:100CEA0083160317100883160313A4008316031729
:100CFA00440883120313A8008316031745088312B6
:100D0A000313A9000030A91BFF30AA00AB00013071
:100D1A000A128A1105200A128A11831203132B0858
:100D2A00D7002A08D6002908D5002808D4003F3061
:100D3A00D3001930D2009930D1009A30D0000A126B
:100D4A008A15BB240A128A118312031353088316C5
:100D5A000313A30083120313520883160313A2007A
:100D6A0083120313510883160313A100831203137A
:100D7A00500883160313A0000A128A15C5210A1205
:100D8A008A11831603132308B3002208B20021082C
:100D9A00B1002008B0000A168A11FF200A128A112F
:100DAA00831603133108831603179D008316031352
:100DBA003008831603179C001C08203E9E001D085D
:100DCA000318013E033E9F00203083160313C80018
:100DDA000330C900831603171C088316031348023D
:100DEA0083160317A0001D08031C1D0A831603138C
:100DFA00490283160317A1001F08803AFF008330B7
:100E0A007F02031D0A2FE9301E02031C0D2F0E2F2D
:100E1A00142FE830831603179E0003309F008316B1
:100E2A0003172108803AFF0083307F02031D1F2F1A
:100E3A00E9302002031C222F232F292FE8308316A2
:100E4A000317A0000330A100831603171F08803A76
:100E5A00FF0080307F02031D342F1E301E0203184C
:100E6A00372F382F3C2F831603179E019F018316B5
:100E7A0003172108803AFF0080307F02031D472FA5
:100E8A001E30200203184A2F4B2F4F2F83160317A9
:100E9A00A001A101831603171E0883120313A800D9
:100EAA00831603171F0883120313A9000030A91B16
:100EBA00FF30AA00AB0001300A128A1105200A127B
:100ECA008A11831203132B088316031797008312C0
:100EDA0003132A088316031796008312031329089B
:100EEA008316031795008312031328088316031722
:100EFA009400200883120313A800831603172108FD
:100F0A0083120313A9000030A91BFF30AA00AB000B
:100F1A0001300A128A1105200A128A118312031358
:100F2A002B08831603179B00831203132A088316C0
:100F3A0003179A00831203132908831603179900CB
:100F4A0083120313280883160317980017088316B9
:100F5A000313BF0083160317160883160313BE0074
:100F6A0083160317150883160313BD008316031788
:100F7A00140883160313BC00831603171B08831671
:100F8A000313C300831603171A0883160313C20038
:100F9A0083160317190883160313C1008316031750
:100FAA00180883160313C0000A168A116D200A1244
:100FBA008A11CA2C0A128A1100288317C230FD002E
:100FCA001F30FE008230FF00B63084000A128A15F4
:100FDA000F200A128A1183160317C201C301C40122
:100FEA00C501C601C701C801C901CA01CB018301F4
:100FFA000A168A11922B831203139D151D151214BA
:10100A009210121583160313871008007E088A00AF
:10101A007F0882000A128A150B200A128A1580009C
:10102A00840A04087D0603190034FF0A0319FE0A1C
:10103A000F28831203132608F9002708FA00280844
:10104A00FB002908FC0002300310F90DFA0DFB0D14
:10105A00FC0DFF3E031D292802300310F90DFA0D7D
:10106A00FB0DFC0DFF3E031D32287C08F3007B08B4
:10107A00F2007A08F1007908F0000130F700313007
:10108A00F6002D30F5000030F4000A168A118D2181
:10109A000A128A157008FF3E831603139200831200
:1010AA000313290883160313CE0083120313280897
:1010BA0083160313CD008312031327088316031321
:1010CA00CC0083120313260883160313CB000800EF
:1010DA0035082706031D732834082606031D7628BB
:1010EA007728C42835082906031D7D2834082806D0
:1010FA00031D80288128C42835082B06031D87284C
:10110A0034082A06031D8A288B28C4283508230692
:10111A00031D912834082206031D94289528C42803
:10112A0033082506031D9B2832082406031D9E2822
:10113A009F28C42835082D06031DA52834082C0627
:10114A00031DA828A928C42835082F06031DAF287F
:10115A0034082E06031DB228B328C42835083106E0
:10116A00031DB92834083006031DBC28BD28C4282D
:10117A000130CA000030CB000A128A11AC2C3508A3
:10118A002706031DCA2834082606031DCD28CE28A3
:10119A00192935082906031DD42834082806031DF1
:1011AA00D728D828192935082B06031DDE28340824
:1011BA002A06031DE128E228192933082306031DFC
:1011CA00E82832082206031DEB28EC2819293508DD
:1011DA002506031DF22834082406031DF528F628DF
:1011EA00192935082D06031DFC2834082C06031D71
:1011FA00FF280029192935082F06031D0629340856
:10120A002E06031D09290A29192935083106031D45
:10121A00102934083006031D132914291929FF300F
:10122A00CA00FF30CB00C12835082706031D1F2935
:10123A0034082606031D222923296E293508290682
:10124A00031D292934082806031D2C292D296E2956
:10125A0035082B06031D332934082A06031D3629AF
:10126A0037296E2935082306031D3D29340822062D
:10127A00031D402941296E2935082506031D4729E2
:10128A0034082406031D4A294B296E2933082D06E2
:10129A00031D512932082C06031D542955296E298C
:1012AA0035082F06031D5B2934082E06031D5E2907
:1012BA005F296E2935083106031D65293408300671
:1012CA00031D682969296E290230CA000030CB0043
:1012DA00C12835082706031D742934082606031D6C
:1012EA0077297A290A168A11D92C35082906031D65
:1012FA00802934082806031D83298429772933087D
:10130A002B06031D8A2932082A06031D8D298E29D8
:10131A00772935082306031D942934082206031D5C
:10132A0097299829772935082506031D9E29340807
:10133A002406031DA129A229772935082D06031D94
:10134A00A82934082C06031DAB29AC2977293508AE
:10135A002F06031DB22934082E06031DB529B62906
:10136A00772935083106031DBC2934083006031DC8
:10137A00BF29C0297729FE30CA00FF30CB00C12817
:10138A00831603132308803983120313EA00831692
:10139A0003132308A800280783120313EC008316FB
:1013AA000313A21FD929DA29DD29831203136C1426
:1013BA0083126C080319E229E329F7296C0A031D31
:1013CA00E729E829F229003083160313A300003025
:1013DA00A2000030A1000030A00083160313A21758
:1013EA00A301012A003083160313A3000030A200D0
:1013FA000030A1000030A0002708803983120313AF
:10140A00EB006B086A0603190B2A0C2A0D2A6A17C5
:10141A00831603132708A800280783120313EB0077
:10142A0083160313A61F1A2A1B2A1E2A83120313C2
:10143A006B1483126B080319232A242A382A6B0A8D
:10144A00031D282A292A332A003083160313A700EA
:10145A000030A6000030A5000030A4008316031354
:10146A00A617A701422A003083160313A7000030EB
:10147A00A6000030A5000030A400831203136C08F4
:10148A006B020318492A4A2A922A6A1F4D2A4E2AAF
:10149A00522A8030FF007F08EA066C08ED006B08CC
:1014AA00EC006D08EB008316031320088312031364
:1014BA00ED00831603132408A000831203136D089A
:1014CA0083160313A400210883120313ED00831665
:1014DA0003132508A100831203136D08831603134F
:1014EA00A500220883120313ED00831603132608AE
:1014FA00A200831203136D0883160313A6002308A0
:10150A0083120313ED00831603132708A300831223
:10151A0003136D0883160313A7008312ED016B08EA
:10152A0083160313A800A9012908AB008312031329
:10153A006C08831603132802AA00031CAB032B08AA
:10154A00803AFF0080307F02031DAD2A1A302A023A
:10155A00031CB02AB12AFA2A831603132308220489
:10156A0021042004031DBA2ABC2A0130BD2A0030F6
:10157A0083120313ED00003083160313A300003017
:10158A00A2000030A1000030A000831203136B08F0
:10159A00EC00022B6D1CD22AD32ADE2A6D08831690
:1015AA000313A8000310280C013883120313ED005B
:1015BA00E02A0310ED0C83160313201CE52AE62A01
:1015CA00E92A83120313ED17013083160313A800C7
:1015DA00230DA30CA20CA10CA00CA80BED2A013020
:1015EA00FF007F0883120313EC07831203136B08AF
:1015FA006C02031C012B022BCF2A6A1B052B062B1C
:10160A00612B6C08031D0A2B0B2B162B003083163B
:10161A000313A3000030A2000030A1000030A00094
:10162A00BA2C831603132408A007250803110318EC
:10163A00013E0319212BA107260803110318013EB5
:10164A000319282BA207270803110318013E0319BF
:10165A002F2BA307231C322B332B282C8312031383
:10166A006D1C382B392B442B6D0883160313A800E5
:10167A000310280C013883120313ED00462B0310C4
:10168A00ED0C83160313201C4B2B4C2B4F2B831270
:10169A000313ED17013083160313A800230DA30CBF
:1016AA00A20CA10CA00CA80B532B0130FF007F0841
:1016BA0083120313EC07282C831603132308803A9A
:1016CA00FF002708803A7F02031D752B2608220295
:1016DA00031D752B25082102031D752B24082002E2
:1016EA000318782B792BD52BFF30A800FF30A900DF
:1016FA00FF30AA00FF30AB002408AC002508AD007B
:10170A002608AE002708AF002008AC022108031CF7
:10171A00210F902B912BAD022208031C220F962B2E
:10172A00972BAE022308031C230F9C2B9D2BAF0281
:10173A002C08A8072D0803182D0FA42BA52BA907E1
:10174A002E0803182E0FAA2BAB2BAA072F08031853
:10175A002F0AAB072B08A3002A08A2002908A10018
:10176A002808A0008030FF007F0883120313EA06CE
:10177A00ED09ED0A6D08031DC32BC42BE32B0130C1
:10178A0083160313A007003003180130A1070030A5
:10179A0003180130A207003003180130A307E32B16
:1017AA002408A0022508031C250FA1022608031CF1
:1017BA00260FA2022708031C270FA302831603136E
:1017CA002308220421042004031DEC2BED2B222CD8
:1017DA00831203136D08031DF32BF42B222C003004
:1017EA0083160313A3000030A2000030A1000030CA
:1017FA00A000BA2C0130A8000310A00DA10DA20D63
:10180A00A30DA80B012C83120313ED1F0D2C0E2C14
:10181A00112C83160313201483126D1C152C162CFD
:10182A00192C0314ED0D1B2C0310ED0D6C08031974
:10183A001F2C202C222C0130EC0283160313A21F2A
:10184A00272C282CFF2B8312EB01ED1F2D2C2E2C7D
:10185A003F2C6D087F390319332C342C382C831212
:10186A00EB01EB0A3F2C83160313201C3D2C3E2C64
:10187A003F2C342C83126B080319442C452C7D2CE5
:10188A00013083160313A007003003180130A107A3
:10189A00003003180130A207003003180130A307F3
:1018AA00231C582C592C7D2C2008A8002108A9009B
:1018BA002208AA002308AB000130AC002B0DAB0CA8
:1018CA00AA0CA90CA80CAC0B632C2B08A3002A08A1
:1018DA00A2002908A1002808A000831203136C0A99
:1018EA000319782C792C7D2C0130FF007F08EC0736
:1018FA0083126C0A0319822C832C882C6C08031D12
:10190A00872C882C9A2C003083160313A3000030EE
:10191A00A2000030A1000030A000831203136C085B
:10192A00031D982C992C9A2CEA016C1C9D2C9E2C38
:10193A00A22C83160313A217A82C7F30FF007F085E
:10194A0083160313A205831203136C088316031369
:10195A00A8000310280CA30083120313EA1FB62C55
:10196A00B72CBA2C83160313A31708008312031388
:10197A0053088039DD005308D8005807E300D21F06
:10198A00C72CC82CC92C631463080319CD2CCE2C80
:10199A00DD2C630A031DD22CD32CDB2C0030D300A0
:1019AA000030D2000030D1000030D000D217E52C30
:1019BA000030D3000030D2000030D1000030D00017
:1019CA0057088039FF007F08DD065708D8005807F6
:1019DA00E200D61FF12CF22CF32C621462080319D0
:1019EA00F72CF82C072D620A031DFC2CFD2C052D63
:1019FA000030D7000030D6000030D5000030D400C7
:101A0A00D6170F2D0030D7000030D6000030D50091
:101A1A000030D40062080319132D142D192D630800
:101A2A00031D182D192D222D0030D3000030D200AD
:101A3A000030D1000030D000FF2F5008F0005608C7
:101A4A000A168A1103200A128A15710883120313CF
:101A5A00E9007008E8006808D800D901DA01DB015A
:101A6A005B08E1005A08E0005908DF005808DE0068
:101A7A006908D800D901DA01DB015B08E7005A08D6
:101A8A00E6005908E5005808E4005108F000550836
:101A9A000A168A1103200A128A157108831203137F
:101AAA00E9007008E8006808D800D901DA01DB010A
:101ABA005808DE07590803110318013E0319662D59
:101ACA00DF075A0803110318013E03196D2DE007B9
:101ADA005B0803110318013E0319742DE107690815
:101AEA00D800D901DA01DB015808E40759080311C3
:101AFA000318013E0319822DE5075A08031103183A
:101B0A00013E0319892DE6075B0803110318013EFC
:101B1A000319902DE7075208F00054080A168A1193
:101B2A0003200A128A15710883120313E900700848
:101B3A00E8006808D800D901DA01DB015808DE0795
:101B4A00590803110318013E0319AC2DDF075A087F
:101B5A0003110318013E0319B32DE0075B080311B3
:101B6A000318013E0319BA2DE1076908D800D90103
:101B7A00DA01DB015808E407590803110318013E8A
:101B8A000319C82DE5075A0803110318013E031962
:101B9A00CF2DE6075B0803110318013E0319D62D62
:101BAA00E7070830D8000310DE0DDF0DE00DE10D68
:101BBA00D80BD82D5108F00054080A168A110320B0
:101BCA000A128A15710883120313E9007008E800E3
:101BDA006808D8006908D900DA01DB015808DE076D
:101BEA00590803110318013E0319FC2DDF075A088F
:101BFA0003110318013E0319032EE0075B080311C2
:101C0A000318013E03190A2EE1075008F00055088F
:101C1A000A168A1103200A128A15710883120313FD
:101C2A00E9007008E8006808D8006908D900DA01F4
:101C3A00DB015808DE07590803110318013E03198E
:101C4A00272EDF075A0803110318013E03192E2E07
:101C5A00E0075B0803110318013E0319352EE1075B
:101C6A000830D8000310DE0DDF0DE00DE10DD80BB2
:101C7A00372E5008F00054080A168A1103200A1257
:101C8A008A15710883120313E9007008E8006808CE
:101C9A00D8006908D900DA01DB015808DE075908BB
:101CAA0003110318013E03195B2EDF075A080311BB
:101CBA000318013E0319622EE0075B08031103189B
:101CCA00013E0319692EE1075108F00056080A1669
:101CDA008A1103200A128A15710883120313E90074
:101CEA007008E8006808D8006908D900DA01DB0141
:101CFA005808E407590803110318013E0319862EF0
:101D0A00E5075A0803110318013E03198D2EE60749
:101D1A005B0803110318013E0319942EE7075208C2
:101D2A00F00055080A168A1103200A128A1571084A
:101D3A0083120313E9007008E8006808D8006908EC
:101D4A00D900DA01DB015808E4075908031103181E
:101D5A00013E0319B12EE5075A0803110318013E83
:101D6A000319B82EE6075B0803110318013E03198D
:101D7A00BF2EE7075208F00056080A168A110320F8
:101D8A000A128A15710883120313E9007008E80021
:101D9A006808D8006908D900DA01DB0108300310A5
:101DAA00D80DD90DDA0DDB0DFF3E031DD42E5808D0
:101DBA00E407590803110318013E0319E52EE50744
:101DCA005A0803110318013E0319EC2EE6075B08B3
:101DDA0003110318013E0319F32EE7075E08D80022
:101DEA005F08D9006008DA006108DB0018300310C8
:101DFA00DB0CDA0CD90CD80CFF3E031DFC2E58085C
:101E0A00E407590803110318013E03190D2FE507CA
:101E1A005A0803110318013E0319142FE6075B0839
:101E2A0003110318013E03191B2FE7070830D800D6
:101E3A000310DE0DDF0DE00DE10DD80B1D2F630839
:101E4A006207D800D901D90D5808823EE80059081E
:101E5A000318013EFF3EE9004F2F0130D80003105E
:101E6A00E40DE50DE60DE70DD80B342FE11F3E2FEB
:101E7A003F2F402F64140130D8000310DE0DDF0D10
:101E8A00E00DE10DD80B422FFF30E8070318E90AED
:101E9A00FF30E907E61F522F532F322FE201E11FCD
:101EAA00572F582F742FFF305E05D800FF305F057B
:101EBA00D900FF306005DA007F306105DB005B087E
:101ECA005A045904580403196B2F6C2F6F2FE2011F
:101EDA00E20A742F641C722F732F742F6C2F6208FE
:101EEA000319782F792FAA2F0130E407003003183D
:101EFA000130E507003003180130E6070030031807
:101F0A000130E707671C8A2F8B2FAA2F6408D80095
:101F1A006508D9006608DA006708DB000130DC00D2
:101F2A005B0DDB0CDA0CD90CD80CDC0B952F5B089B
:101F3A00E7005A08E6005908E5005808E4000130AD
:101F4A00E8070318E90A0030E9076908803AFF0040
:101F5A0080307F02031DB32FFF306802031CB62FA7
:101F6A00B72FC22F7F3083120313E7008030E600B9
:101F7A000030E5000030E400F32F831203136908F0
:101F8A00803AFF0080307F02031DCD2F01306802A6
:101F9A000318D02FD12FDD2F003083120313E7004F
:101FAA000030E6000030E5000030E400DD01F32FE8
:101FBA00831203136808E300FF30E405FF30E505E8
:101FCA007F30E6050030E705631CEC2FED2FEE2F7E
:101FDA00E6176308D8000310580CE7005D08FF00F5
:101FEA007F08E7046708D3006608D2006508D100B5
:061FFA006408D00008009D
:10200600F800F401F5017008F200F3017208F60019
:102016007308F700781C1028112817287608F4078B
:102026000318F50A7708F50701300310F60DF70DCA
:10203600FF3E031D18280310F80C7808031D2428FA
:1020460025280D287508F1007408F000080083168D
:1020560003133F08B3003E08B2003D08B1003C0838
:10206600B0000A168A11FF200A168A118316031376
:102076003108C5003008C4004508B9004408B80056
:102086000A168A112A220A168A118316031343088E
:10209600B3004208B2004108B1004008B0000A1679
:1020A6008A11FF200A168A11831603133108C70006
:1020B6003008C6004708B9004608B8000A168A1153
:1020C600DE220A168A1183120313081588110716D1
:1020D60087120800831603133F08B3003E08B200B8
:1020E6003D08B1003C08B0000A168A11FF200A1606
:1020F6008A11831603133108C5003008C400450849
:10210600B9004408B8000A168A112A220A168A114A
:10211600831603134308B3004208B2004108B10016
:102126004008B0000A168A11FF200A168A11831683
:1021360003133108C7003008C6004708B90046082F
:10214600B8000A168A11DE220A168A1183120313B0
:10215600081188150716871208008312031326082C
:10216600F9002708FA002808FB002908FC000230BD
:102176000310F90DFA0DFB0DFC0DFF3E031DBB28E8
:1021860002300310F90DFA0DFB0DFC0DFF3E031D89
:10219600C4287C08F3007B08F2007A08F10079086D
:1021A600F0000130F7003130F6002D30F500003038
:1021B600F4000A168A118D210A168A117008FF3E4C
:1021C600831603139200831203132908831603133D
:1021D600CE0083120313280883160313CD0083123F
:1021E6000313270883160313CC0083120313260850
:1021F60083160313CB000800031083160313320D56
:10220600330D83120313EF006F08031D0B290C29EE
:102216001729003083160313B3000030B2000030D4
:10222600B1000030B0008C29831603133008B400C7
:102236003108B5003208B6003308B7001F30031066
:10224600B70CB60CB50CB40CFF3E031D222934089E
:1022560083120313EE0083160313B217FF30B00583
:10226600FF30B105FF30B2050030B305963083125A
:102276000313EF02EF1F402941295F296F08803AB7
:10228600973E03184729482949290C29013003108C
:1022960083160313B30CB20CB10CB00CFF3E031D36
:1022A6004A290130FF007F0883120313EF07031D3D
:1022B6005D295E2949297A2920306F02031C642989
:1022C600652975290C29013083160313B400031000
:1022D600B00DB10DB20DB30DB40B6A2901308312E6
:1022E6000313EF026F08031D79297A2966296E0800
:1022F60003197E297F298C2983160313B009B10996
:10230600B209B309B00A0319B10A0319B20A0319CB
:10231600B30A080083120313A101F31F932994291A
:10232600A129F009F109F209F309F00A0319F10AE2
:102336000319F20A0319F30AA101A10AF71FA42936
:10234600A529B429F409F509F609F709F40A0319C8
:10235600F50A0319F60A0319F70A0130FF007F0888
:10236600A1060030A5000030A4000030A300003014
:10237600A20073087204710470040319C329C429E6
:10238600112AA001A00AD4290130F8000310F00D8B
:10239600F10DF20DF30DF80BC9290130FF007F088E
:1023A600A007F31FD729D829C7290130F800031041
:1023B600A20DA30DA40DA50DF80BDA29730877025B
:1023C600031DEF2972087602031DEF2971087502B5
:1023D600031DEF2970087402031CF229F329022A4F
:1023E6007008F4027108031C710FF5027208031CD1
:1023F600720FF6027308031C730FF70222140130E2
:102406000310F30CF20CF10CF00CFF3E031D032A33
:102416000130A002031D102A112AD8292108031908
:10242600152A162A212AA209A309A409A509A20A7E
:102436000319A30A0319A40A0319A50A2508F30018
:102446002408F2002308F1002208F00008000430F6
:102456008316031339020030031938020318342A8D
:10246600352ADD2A380883120313A80083160313BE
:10247600390883120313A900AA01AB0100300A121E
:102486008A1105200A168A11831203132B08BD0030
:102496002A08BC002908BB002808BA004430B90045
:1024A6007F30B800C030B7000030B6000A168A1177
:1024B60031260A168A11831203133908D700380801
:1024C600D6003708D5003608D4000A168A158E2796
:1024D6000A168A11831203132608A8002708A900E2
:1024E6000030A91BFF30AA00AB0001300A128A1186
:1024F60005200A168A11831203132B08D3002A0813
:10250600D2002908D1002808D0000A128A15BB2457
:102516000A168A1183120313530883160313B30092
:1025260083120313520883160313B2008312031394
:10253600510883160313B100831203135008831640
:102546000313B0000A168A11FF200A168A11831691
:1025560003133108B9003008B8003908BB00380841
:10256600BA000310BB0CBA0C3A18BA2ABE2A831258
:1025760003139716C12A83120313971283160313A4
:102586003818C62ACA2A831203131716CD2A8312AD
:1025960003131712831603133908BB003808BA0051
:1025A6000310BB0CBA0C0310BB0CBA0C3A0883120E
:1025B6000313950008000430831603133902003014
:1025C600031938020318E82AE92A912B38088312DE
:1025D6000313A80083160313390883120313A900F3
:1025E600AA01AB0100300A128A1105200A168A11C7
:1025F600831203132B08BD002A08BC002908BB0060
:102606002808BA004430B9007F30B800C030B7009F
:102616000030B6000A168A1131260A168A1183126C
:1026260003133908D7003808D6003708D50036080E
:10263600D4000A168A158E270A168A1183120313E6
:102646002608A8002708A9000030A91BFF30AA0009
:10265600AB0001300A128A1105200A168A1183126C
:1026660003132B08D3002A08D2002908D100280812
:10267600D0000A128A15BB240A168A118312031384
:10268600530883160313B3008312031352088316E9
:102696000313B20083120313510883160313B10008
:1026A60083120313500883160313B0000A168A1107
:1026B600FF200A168A11831603133108B900300861
:1026C600B8003908BB003808BA000310BB0CBA0CB6
:1026D6003A186E2B722B831203139D16752B8312D9
:1026E60003139D128316031338187A2B7E2B83123D
:1026F60003131D16812B831203131D128316031356
:102706003908BB003808BA000310BB0CBA0C03101A
:10271600BB0CBA0C3A08831203139B000800003066
:1027260083120313A9000030A8001330A7008830D5
:10273600A6000A168A11B0200A168A1100308312E2
:102746000313A9000030A8001330A7008830A600A4
:102756000A128A151E200A168A11831603130811F7
:10276600881107128712091006148B138113861419
:1027760006158615061608178816081687170030D8
:10278600B800B9000A168A112A220A168A110030E0
:1027960083160313B800B9000A168A11DE220A1638
:1027A6008A110A168A1577270A168A110A128A15B5
:1027B60000200A168A1183120313091483120313C5
:1027C600070D070D013983160313C800C901480810
:1027D60083160317A60083160313490883160317E7
:1027E600A70083120313080E013983160313C800CA
:1027F600C901480883160317A8008316031349085E
:1028060083160317A90083120313080E83160313F6
:10281600C800480C0139C900CA01490883160317C4
:10282600AA00831603134A0883160317AB00831204
:102836000313080E83160313C800C80C480C01398D
:10284600C900CA01490883160317A2008316031399
:102856004A0883160317A30083120313060C831674
:102866000313C800480C0139C900CA014908831678
:102876000317A400831603134A0883160317A5003B
:1028860083120313060C83160313C800C80C480CE6
:102896000139C900CA01490883160317AC0083161B
:1028A60003134A0883160317AD0083120313060E9B
:1028B600013983160313C800C90148088316031794
:1028C600AE0083160313490883160317AF0083125D
:1028D6000313060C013983160313C800C9014808FF
:1028E60083160317B00083160313490883160317CC
:1028F600B1000130B4000030B500B201B3013508B3
:102906002706031D882C34082606031D8B2C8E2CC7
:102916000A128A156D2835082906031D942C3408D9
:102926002806031D972C982C8B2C35082B06031D87
:102936009E2C34082A06031DA12CA22C8B2C3308AE
:102946002306031DA82C32082206031DAB2CAC2C33
:102956008B2C33082506031DB22C32082406031DD2
:10296600B52CB62C8B2C35082D06031DBC2C340833
:102976002C06031DBF2CC02C8B2C35082F06031DDF
:10298600C62C34082E06031DC92CCA2C8B2C3508E0
:102996003106031DD02C34083006031DD32CD42C4D
:1029A6008B2CCA01CB010A128A11AC2C35082706DA
:1029B600031DDF2C34082606031DE22CE32C302DE4
:1029C60035082906031DE92C34082806031DEC2CBE
:1029D600ED2C302D35082B06031DF32C34082A0662
:1029E600031DF62CF72C302D35082306031DFD2C70
:1029F60034082206031D002D012D302D350825062D
:102A0600031D072D34082406031D0A2D0B2D302D1A
:102A160035082D06031D112D34082C06031D142D13
:102A2600152D302D33082F06031D1B2D32082E06BB
:102A3600031D1E2D1F2D302D35083106031D252D96
:102A460034083006031D282D292D302D3230CA00BA
:102A56000030CB000A128A11AC2C35082706031D5C
:102A6600362D34082606031D392D3A2D852D3308BB
:102A76002906031D402D32082806031D432D442D2B
:102A8600852D35082B06031D4A2D34082A06031DFD
:102A96004D2D4E2D852D35082306031D542D340846
:102AA6002206031D572D582D852D35082506031D95
:102AB6005E2D34082406031D612D622D852D3508F3
:102AC6002D06031D682D34082C06031D6B2D6C2D59
:102AD600852D35082F06031D722D34082E06031D7D
:102AE600752D762D852D35083106031D7C2D340870
:102AF6003006031D7F2D802D852DCE30CA00FF3078
:102B0600CB002D2D35082706031D8B2D34082606F0
:102B1600031D8E2D8F2DDA2D35082906031D952DC3
:102B260034082806031D982D992DDA2D35082B0615
:102B3600031D9F2D34082A06031DA22DA32DDA2D71
:102B460035082306031DA92D34082206031DAC2DC6
:102B5600AD2DDA2D35082506031DB32D34082406C0
:102B6600031DB62DB72DDA2D35082D06031DBD2DF7
:102B760034082C06031DC02DC12DDA2D35082F066D
:102B8600031DC72D34082E06031DCA2DCB2DDA2DA5
:102B960033083106031DD12D32083006031DD42D0E
:102BA600D52DDA2D6430CA000030CB002D2D330828
:102BB6002706031DE02D32082606031DE32DE62D0C
:102BC6000A128A11BF2835082906031DEC2D340880
:102BD6002806031DEF2DF02DE32D35082B06031DCA
:102BE600F62D34082A06031DF92DFA2DE32D350896
:102BF6002306031D002E34082206031D032E042E71
:102C0600E32D35082506031D0A2E34082406031D68
:102C16000D2E0E2EE32D35082D06031D142E340819
:102C26002C06031D172E182EE32D35082F06031D1F
:102C36001E2E34082E06031D212E222EE32D3508C6
:102C46003106031D282E34083006031D2B2E2C2E8C
:102C5600E32D9C30CA00FF30CB002D2D83120313C9
:102C66003D088039C7003D08BE003E07CE00BC1FA8
:102C76003D2E3E2E3F2E4E144E080319432E442E53
:102C8600542E4E0A031D482E492E512E0030BD00EB
:102C96000030BC000030BB000030BA00BC17BD01DC
:102CA6005C2E0030BD000030BC000030BB000030A0
:102CB600BA0039088039FF007F08C7063908BE0008
:102CC6003E07CF00B81F682E692E6A2E4F144F0894
:102CD60003196E2E6F2E7F2E4F0A031D732E742E30
:102CE6007C2E0030B9000030B8000030B70000304C
:102CF600B600B817B901872E0030B9000030B80009
:102D06000030B7000030B6003908380437043604FE
:102D1600031D8E2E8F2EA82E0030BD000030BC0065
:102D26000030BB000030BA008030BC047F30BD04E8
:102D36004708FF007F08BD043D08B9003C08B800FD
:102D46003B08B7003A08B600FF2F4E08031DAC2E0D
:102D5600AD2EB62E0030B9000030B8000030B700F6
:102D66000030B600FF2F4E08BE00BF013F08C1006D
:102D76004F083E02C000031CC10340087F3EC80046
:102D860041080318013E003EC9003D08C6003C0844
:102D9600C5003B08C4003A08C3000030BD0000303F
:102DA600BC000030BB000030BA000030CD0000305F
:102DB600CC000030CB000030CA00CF012C2F4F08CA
:102DC6000319E62EE72E072F0130BE000310C30DB0
:102DD600C40DC50DC60DBE0BE92E0130BE00031095
:102DE600BA0DBB0DBC0DBD0DBE0BF22ECD1FFC2EBC
:102DF600FD2EFE2E3A140130BE000310CA0DCB0D77
:102E0600CC0DCD0DBE0B002F39084602031D152F24
:102E160038084502031D152F37084402031D152FD8
:102E260036084302031C182F192F282F4D17360872
:102E3600C3023708031C370FC4023808031C380FB7
:102E4600C5023908031C390FC6020130FF007F088E
:102E5600CF071A304F02031C312F322FE22E4608BD
:102E66004504440443040319392F3A2F592F4A14B1
:102E7600592F0130BE000310BA0DBB0DBC0DBD0DA0
:102E8600BE0B3E2FCD1F482F492F4A2F3A14013033
:102E9600BE000310CA0DCB0DCC0DCD0DBE0B4C2FB5
:102EA600FF30C8070318C90AFF30C907BC1F5C2FCB
:102EB6005D2F3C2FCF01CD1F612F622F7E2FFF305C
:102EC6004A05BE00FF304B05BF00FF304C05C00071
:102ED6007F304D05C100410840043F043E040319FC
:102EE600752F762F792FCF01CF0A7E2F3A1C7C2F94
:102EF6007D2F7E2F762F4F080319822F832FB42F15
:102F06000130BA07003003180130BB070030031840
:102F16000130BC07003003180130BD073D1C942F5B
:102F2600952FB42F3A08BE003B08BF003C08C000EE
:102F36003D08C1000130C200410DC10CC00CBF0CE0
:102F4600BE0CC20B9F2F4108BD004008BC003F08C5
:102F5600BB003E08BA000130C8070318C90A003092
:102F6600C9074908803AFF0080307F02031DBD2F44
:102F7600FF304802031CC02FC12FCF2FFF30831212
:102F86000313C8000030C9000030BD000030BC008B
:102F96000030BB000030BA00831203134908803AA0
:102FA600FF0080307F02031DDA2F0130480203182C
:102FB600DD2FDE2FEB2F83120313C801C90100306A
:102FC600BD000030BC000030BB000030BA00C701B5
:102FD600831203134808CE004E1CF22FF32FF52F51
:102FE600BC17F92F7F30FF007F08BC054E08BE00D6
:102FF60003103E0CBD009B2E080018308A00040802
:10300600840A820700342034033420340334E8343D
:063016000334E83403342A
:103EEE0083120313971517151214921012158316B9
:103EFE000313071108009A34993419343F341734D8
:103F0E00B73451343A3400340034C8344234831652
:103F1E0003134B08F9004C08FA004D08FB004E083D
:103F2E00FC0002300310F90DFA0DFB0DFC0DFF3EE7
:103F3E00031D992F7C08F3007B08F2007A08F1002C
:103F4E007908F0000130F7003130F6002D30F50021
:103F5E000030F4000A168A118D210A168A1571088E
:103F6E0083120313A7007008A6000800831603131C
:103F7E003F08B3003E08B2003D08B1003C08B00057
:103F8E000A168A11FF200A168A15831603133108A2
:103F9E00C5003008C4004508B9004408B8000A1628
:103FAE008A112A220A168A15831603134308B300B0
:103FBE004208B2004108B1004008B0000A168A114A
:103FCE00FF200A168A15831603133108C70030081E
:103FDE00C6004708B9004608B8000A168A11DE2244
:103FEE000A168A15831203130811881507128716ED
:023FFE000800B9
:02400E00723FFF
:00000001FF
